{
    "contractName": "nayaContract",
    "abi": [
        {
            "inputs": [
                {
                    "internalType": "address",
                    "name": "_owner",
                    "type": "address"
                },
                {
                    "internalType": "string",
                    "name": "_uri",
                    "type": "string"
                },
                {
                    "internalType": "uint256[]",
                    "name": "ids",
                    "type": "uint256[]"
                },
                {
                    "internalType": "uint256[]",
                    "name": "amounts",
                    "type": "uint256[]"
                }
            ],
            "stateMutability": "nonpayable",
            "type": "constructor"
        },
        {
            "anonymous": false,
            "inputs": [
                {
                    "indexed": true,
                    "internalType": "address",
                    "name": "account",
                    "type": "address"
                },
                {
                    "indexed": true,
                    "internalType": "address",
                    "name": "operator",
                    "type": "address"
                },
                {
                    "indexed": false,
                    "internalType": "bool",
                    "name": "approved",
                    "type": "bool"
                }
            ],
            "name": "ApprovalForAll",
            "type": "event"
        },
        {
            "anonymous": false,
            "inputs": [
                {
                    "indexed": true,
                    "internalType": "address",
                    "name": "previousOwner",
                    "type": "address"
                },
                {
                    "indexed": true,
                    "internalType": "address",
                    "name": "newOwner",
                    "type": "address"
                }
            ],
            "name": "OwnershipTransferred",
            "type": "event"
        },
        {
            "anonymous": false,
            "inputs": [
                {
                    "indexed": true,
                    "internalType": "address",
                    "name": "operator",
                    "type": "address"
                },
                {
                    "indexed": true,
                    "internalType": "address",
                    "name": "from",
                    "type": "address"
                },
                {
                    "indexed": true,
                    "internalType": "address",
                    "name": "to",
                    "type": "address"
                },
                {
                    "indexed": false,
                    "internalType": "uint256[]",
                    "name": "ids",
                    "type": "uint256[]"
                },
                {
                    "indexed": false,
                    "internalType": "uint256[]",
                    "name": "values",
                    "type": "uint256[]"
                }
            ],
            "name": "TransferBatch",
            "type": "event"
        },
        {
            "anonymous": false,
            "inputs": [
                {
                    "indexed": true,
                    "internalType": "address",
                    "name": "operator",
                    "type": "address"
                },
                {
                    "indexed": true,
                    "internalType": "address",
                    "name": "from",
                    "type": "address"
                },
                {
                    "indexed": true,
                    "internalType": "address",
                    "name": "to",
                    "type": "address"
                },
                {
                    "indexed": false,
                    "internalType": "uint256",
                    "name": "id",
                    "type": "uint256"
                },
                {
                    "indexed": false,
                    "internalType": "uint256",
                    "name": "value",
                    "type": "uint256"
                }
            ],
            "name": "TransferSingle",
            "type": "event"
        },
        {
            "anonymous": false,
            "inputs": [
                {
                    "indexed": false,
                    "internalType": "string",
                    "name": "value",
                    "type": "string"
                },
                {
                    "indexed": true,
                    "internalType": "uint256",
                    "name": "id",
                    "type": "uint256"
                }
            ],
            "name": "URI",
            "type": "event"
        },
        {
            "inputs": [],
            "name": "Owner",
            "outputs": [
                {
                    "internalType": "address",
                    "name": "",
                    "type": "address"
                }
            ],
            "stateMutability": "view",
            "type": "function"
        },
        {
            "inputs": [
                {
                    "internalType": "address",
                    "name": "account",
                    "type": "address"
                },
                {
                    "internalType": "uint256",
                    "name": "id",
                    "type": "uint256"
                }
            ],
            "name": "balanceOf",
            "outputs": [
                {
                    "internalType": "uint256",
                    "name": "",
                    "type": "uint256"
                }
            ],
            "stateMutability": "view",
            "type": "function"
        },
        {
            "inputs": [
                {
                    "internalType": "address[]",
                    "name": "accounts",
                    "type": "address[]"
                },
                {
                    "internalType": "uint256[]",
                    "name": "ids",
                    "type": "uint256[]"
                }
            ],
            "name": "balanceOfBatch",
            "outputs": [
                {
                    "internalType": "uint256[]",
                    "name": "",
                    "type": "uint256[]"
                }
            ],
            "stateMutability": "view",
            "type": "function"
        },
        {
            "inputs": [
                {
                    "internalType": "address",
                    "name": "account",
                    "type": "address"
                },
                {
                    "internalType": "address",
                    "name": "operator",
                    "type": "address"
                }
            ],
            "name": "isApprovedForAll",
            "outputs": [
                {
                    "internalType": "bool",
                    "name": "",
                    "type": "bool"
                }
            ],
            "stateMutability": "view",
            "type": "function"
        },
        {
            "inputs": [],
            "name": "name",
            "outputs": [
                {
                    "internalType": "string",
                    "name": "",
                    "type": "string"
                }
            ],
            "stateMutability": "view",
            "type": "function"
        },
        {
            "inputs": [],
            "name": "owner",
            "outputs": [
                {
                    "internalType": "address",
                    "name": "",
                    "type": "address"
                }
            ],
            "stateMutability": "view",
            "type": "function"
        },
        {
            "inputs": [],
            "name": "renounceOwnership",
            "outputs": [],
            "stateMutability": "nonpayable",
            "type": "function"
        },
        {
            "inputs": [
                {
                    "internalType": "address",
                    "name": "from",
                    "type": "address"
                },
                {
                    "internalType": "address",
                    "name": "to",
                    "type": "address"
                },
                {
                    "internalType": "uint256[]",
                    "name": "ids",
                    "type": "uint256[]"
                },
                {
                    "internalType": "uint256[]",
                    "name": "amounts",
                    "type": "uint256[]"
                },
                {
                    "internalType": "bytes",
                    "name": "data",
                    "type": "bytes"
                }
            ],
            "name": "safeBatchTransferFrom",
            "outputs": [],
            "stateMutability": "nonpayable",
            "type": "function"
        },
        {
            "inputs": [
                {
                    "internalType": "address",
                    "name": "from",
                    "type": "address"
                },
                {
                    "internalType": "address",
                    "name": "to",
                    "type": "address"
                },
                {
                    "internalType": "uint256",
                    "name": "id",
                    "type": "uint256"
                },
                {
                    "internalType": "uint256",
                    "name": "amount",
                    "type": "uint256"
                },
                {
                    "internalType": "bytes",
                    "name": "data",
                    "type": "bytes"
                }
            ],
            "name": "safeTransferFrom",
            "outputs": [],
            "stateMutability": "nonpayable",
            "type": "function"
        },
        {
            "inputs": [
                {
                    "internalType": "address",
                    "name": "operator",
                    "type": "address"
                },
                {
                    "internalType": "bool",
                    "name": "approved",
                    "type": "bool"
                }
            ],
            "name": "setApprovalForAll",
            "outputs": [],
            "stateMutability": "nonpayable",
            "type": "function"
        },
        {
            "inputs": [
                {
                    "internalType": "bytes4",
                    "name": "interfaceId",
                    "type": "bytes4"
                }
            ],
            "name": "supportsInterface",
            "outputs": [
                {
                    "internalType": "bool",
                    "name": "",
                    "type": "bool"
                }
            ],
            "stateMutability": "view",
            "type": "function"
        },
        {
            "inputs": [
                {
                    "internalType": "address",
                    "name": "newOwner",
                    "type": "address"
                }
            ],
            "name": "transferOwnership",
            "outputs": [],
            "stateMutability": "nonpayable",
            "type": "function"
        },
        {
            "inputs": [
                {
                    "internalType": "uint256",
                    "name": "",
                    "type": "uint256"
                }
            ],
            "name": "uri",
            "outputs": [
                {
                    "internalType": "string",
                    "name": "",
                    "type": "string"
                }
            ],
            "stateMutability": "view",
            "type": "function"
        }
    ],
    "bytecode": "60806040523480156200001157600080fd5b50604051620020e5380380620020e58339810160408190526200003491620005ff565b826200004033620000d7565b6200004b8162000127565b5060408051808201909152601e81527f41707076656e742042756c6b204465706c6f7920436f6c6c656374696f6e000060208201526004906200008f90826200079c565b50600580546001600160a01b0319166001600160a01b038616908117909155604080516020810190915260008152620000cd91908490849062000139565b5050505062000ac1565b600080546001600160a01b038381166001600160a01b0319831681178455604051919092169283917f8be0079c531659141344cd1fd0a4f28419497f9722a3daafe3b4186f6b6457e09190a35050565b60036200013582826200079c565b5050565b6001600160a01b0384166200019f5760405162461bcd60e51b815260206004820152602160248201527f455243313135353a206d696e7420746f20746865207a65726f206164647265736044820152607360f81b60648201526084015b60405180910390fd5b8151835114620002035760405162461bcd60e51b815260206004820152602860248201527f455243313135353a2069647320616e6420616d6f756e7473206c656e677468206044820152670dad2e6dac2e8c6d60c31b606482015260840162000196565b3360005b8451811015620002ac5783818151811062000226576200022662000868565b60200260200101516001600087848151811062000247576200024762000868565b602002602001015181526020019081526020016000206000886001600160a01b03166001600160a01b03168152602001908152602001600020600082825462000291919062000894565b90915550819050620002a381620008b0565b91505062000207565b50846001600160a01b031660006001600160a01b0316826001600160a01b03167f4a39dc06d4c0dbc64b70af90fd698a233a518aa5d07e595d983b8c0526c8f7fb8787604051620002ff92919062000909565b60405180910390a4620003188160008787878762000327565b5050505050565b505050505050565b62000346846001600160a01b0316620004fc60201b620006921760201c565b156200031f5760405163bc197c8160e01b81526001600160a01b0385169063bc197c819062000382908990899088908890889060040162000969565b6020604051808303816000875af1925050508015620003c0575060408051601f3d908101601f19168201909252620003bd91810190620009cd565b60015b6200048057620003cf62000a00565b806308c379a0036200040f5750620003e662000a1d565b80620003f3575062000411565b8060405162461bcd60e51b815260040162000196919062000aac565b505b60405162461bcd60e51b815260206004820152603460248201527f455243313135353a207472616e7366657220746f206e6f6e2d4552433131353560448201527f526563656976657220696d706c656d656e746572000000000000000000000000606482015260840162000196565b6001600160e01b0319811663bc197c8160e01b14620004f35760405162461bcd60e51b815260206004820152602860248201527f455243313135353a204552433131353552656365697665722072656a656374656044820152676420746f6b656e7360c01b606482015260840162000196565b50505050505050565b6001600160a01b03163b151590565b634e487b7160e01b600052604160045260246000fd5b601f8201601f191681016001600160401b03811182821017156200054957620005496200050b565b6040525050565b60005b838110156200056d57818101518382015260200162000553565b50506000910152565b600082601f8301126200058857600080fd5b815160206001600160401b03821115620005a657620005a66200050b565b8160051b604051620005bb8383018262000521565b92835284810182019282810187851115620005d557600080fd5b83870192505b84831015620005f45782518152918301918301620005db565b509695505050505050565b600080600080608085870312156200061657600080fd5b84516001600160a01b03811681146200062e57600080fd5b60208601519094506001600160401b03808211156200064c57600080fd5b818701915087601f8301126200066157600080fd5b8151818111156200067657620006766200050b565b6040516200068f601f8301601f19166020018262000521565b818152896020838601011115620006a557600080fd5b620006b882602083016020870162000550565b604089015190965092505080821115620006d157600080fd5b620006df8883890162000576565b93506060870151915080821115620006f657600080fd5b50620007058782880162000576565b91505092959194509250565b600181811c908216806200072657607f821691505b6020821081036200074757634e487b7160e01b600052602260045260246000fd5b50919050565b601f8211156200079757600081815260208120601f850160051c81016020861015620007765750805b601f850160051c820191505b818110156200031f5782815560010162000782565b505050565b81516001600160401b03811115620007b857620007b86200050b565b620007d081620007c9845462000711565b846200074d565b602080601f831160018114620008085760008415620007ef5750858301515b600019600386901b1c1916600185901b1785556200031f565b600085815260208120601f198616915b82811015620008395788860151825594840194600190910190840162000818565b5085821015620008585787850151600019600388901b60f8161c191681555b5050505050600190811b01905550565b634e487b7160e01b600052603260045260246000fd5b634e487b7160e01b600052601160045260246000fd5b80820180821115620008aa57620008aa6200087e565b92915050565b600060018201620008c557620008c56200087e565b5060010190565b600081518084526020808501945080840160005b83811015620008fe57815187529582019590820190600101620008e0565b509495945050505050565b6040815260006200091e6040830185620008cc565b8281036020840152620009328185620008cc565b95945050505050565b600081518084526200095581602086016020860162000550565b601f01601f19169290920160200192915050565b6001600160a01b0386811682528516602082015260a0604082018190526000906200099790830186620008cc565b8281036060840152620009ab8186620008cc565b90508281036080840152620009c181856200093b565b98975050505050505050565b600060208284031215620009e057600080fd5b81516001600160e01b031981168114620009f957600080fd5b9392505050565b600060033d111562000a1a5760046000803e5060005160e01c5b90565b600060443d101562000a2c5790565b6040516003193d81016004833e81513d6001600160401b03808311602484018310171562000a5c57505050505090565b828501915081518181111562000a755750505050505090565b843d870101602082850101111562000a905750505050505090565b62000aa16020828601018762000521565b509095945050505050565b602081526000620009f960208301846200093b565b6116148062000ad16000396000f3fe608060405234801561001057600080fd5b50600436106100ce5760003560e01c8063715018a61161008c578063b4a99a4e11610066578063b4a99a4e146101b9578063e985e9c5146101cc578063f242432a14610208578063f2fde38b1461021b57600080fd5b8063715018a6146101795780638da5cb5b14610181578063a22cb465146101a657600080fd5b8062fdd58e146100d357806301ffc9a7146100f957806306fdde031461011c5780630e89341c146101315780632eb2c2d6146101445780634e1273f414610159575b600080fd5b6100e66100e1366004610dbf565b61022e565b6040519081526020015b60405180910390f35b61010c610107366004610dff565b6102c9565b60405190151581526020016100f0565b610124610319565b6040516100f09190610e69565b61012461013f366004610e7c565b6103a7565b610157610152366004610fe1565b61043b565b005b61016c61016736600461108b565b610487565b6040516100f09190611191565b6101576105b1565b6000546001600160a01b03165b6040516001600160a01b0390911681526020016100f0565b6101576101b43660046111a4565b6105c5565b60055461018e906001600160a01b031681565b61010c6101da3660046111e0565b6001600160a01b03918216600090815260026020908152604080832093909416825291909152205460ff1690565b610157610216366004611213565b6105d4565b610157610229366004611278565b610619565b60006001600160a01b03831661029e5760405162461bcd60e51b815260206004820152602a60248201527f455243313135353a2061646472657373207a65726f206973206e6f742061207660448201526930b634b21037bbb732b960b11b60648201526084015b60405180910390fd5b5060008181526001602090815260408083206001600160a01b03861684529091529020545b92915050565b60006001600160e01b03198216636cdb3d1360e11b14806102fa57506001600160e01b031982166303a24d0760e21b145b806102c357506301ffc9a760e01b6001600160e01b03198316146102c3565b6004805461032690611293565b80601f016020809104026020016040519081016040528092919081815260200182805461035290611293565b801561039f5780601f106103745761010080835404028352916020019161039f565b820191906000526020600020905b81548152906001019060200180831161038257829003601f168201915b505050505081565b6060600380546103b690611293565b80601f01602080910402602001604051908101604052809291908181526020018280546103e290611293565b801561042f5780601f106104045761010080835404028352916020019161042f565b820191906000526020600020905b81548152906001019060200180831161041257829003601f168201915b50505050509050919050565b6001600160a01b038516331480610457575061045785336101da565b6104735760405162461bcd60e51b8152600401610295906112cd565b61048085858585856106a1565b5050505050565b606081518351146104ec5760405162461bcd60e51b815260206004820152602960248201527f455243313135353a206163636f756e747320616e6420696473206c656e677468604482015268040dad2e6dac2e8c6d60bb1b6064820152608401610295565b6000835167ffffffffffffffff81111561050857610508610e95565b604051908082528060200260200182016040528015610531578160200160208202803683370190505b50905060005b84518110156105a95761057c8582815181106105555761055561131b565b602002602001015185838151811061056f5761056f61131b565b602002602001015161022e565b82828151811061058e5761058e61131b565b60209081029190910101526105a281611347565b9050610537565b509392505050565b6105b9610881565b6105c360006108db565b565b6105d033838361092b565b5050565b6001600160a01b0385163314806105f057506105f085336101da565b61060c5760405162461bcd60e51b8152600401610295906112cd565b6104808585858585610a0b565b610621610881565b6001600160a01b0381166106865760405162461bcd60e51b815260206004820152602660248201527f4f776e61626c653a206e6577206f776e657220697320746865207a65726f206160448201526564647265737360d01b6064820152608401610295565b61068f816108db565b50565b6001600160a01b03163b151590565b81518351146107035760405162461bcd60e51b815260206004820152602860248201527f455243313135353a2069647320616e6420616d6f756e7473206c656e677468206044820152670dad2e6dac2e8c6d60c31b6064820152608401610295565b6001600160a01b0384166107295760405162461bcd60e51b815260040161029590611360565b3360005b845181101561081357600085828151811061074a5761074a61131b565b6020026020010151905060008583815181106107685761076861131b565b60209081029190910181015160008481526001835260408082206001600160a01b038e1683529093529190912054909150818110156107b95760405162461bcd60e51b8152600401610295906113a5565b60008381526001602090815260408083206001600160a01b038e8116855292528083208585039055908b168252812080548492906107f89084906113ef565b925050819055505050508061080c90611347565b905061072d565b50846001600160a01b0316866001600160a01b0316826001600160a01b03167f4a39dc06d4c0dbc64b70af90fd698a233a518aa5d07e595d983b8c0526c8f7fb8787604051610863929190611402565b60405180910390a4610879818787878787610b39565b505050505050565b6000546001600160a01b031633146105c35760405162461bcd60e51b815260206004820181905260248201527f4f776e61626c653a2063616c6c6572206973206e6f7420746865206f776e65726044820152606401610295565b600080546001600160a01b038381166001600160a01b0319831681178455604051919092169283917f8be0079c531659141344cd1fd0a4f28419497f9722a3daafe3b4186f6b6457e09190a35050565b816001600160a01b0316836001600160a01b03160361099e5760405162461bcd60e51b815260206004820152602960248201527f455243313135353a2073657474696e6720617070726f76616c20737461747573604482015268103337b91039b2b63360b91b6064820152608401610295565b6001600160a01b03838116600081815260026020908152604080832094871680845294825291829020805460ff191686151590811790915591519182527f17307eab39ab6107e8899845ad3d59bd9653f200f220920489ca2b5937696c31910160405180910390a3505050565b6001600160a01b038416610a315760405162461bcd60e51b815260040161029590611360565b336000610a3d85610c9d565b90506000610a4a85610c9d565b905060008681526001602090815260408083206001600160a01b038c16845290915290205485811015610a8f5760405162461bcd60e51b8152600401610295906113a5565b60008781526001602090815260408083206001600160a01b038d8116855292528083208985039055908a16825281208054889290610ace9084906113ef565b909155505060408051888152602081018890526001600160a01b03808b16928c821692918816917fc3d58168c5ae7397731d063d5bbf3d657854427343f4c083240f7aacaa2d0f62910160405180910390a4610b2e848a8a8a8a8a610ce8565b505050505050505050565b6001600160a01b0384163b156108795760405163bc197c8160e01b81526001600160a01b0385169063bc197c8190610b7d9089908990889088908890600401611430565b6020604051808303816000875af1925050508015610bb8575060408051601f3d908101601f19168201909252610bb59181019061148e565b60015b610c6457610bc46114ab565b806308c379a003610bfd5750610bd86114c7565b80610be35750610bff565b8060405162461bcd60e51b81526004016102959190610e69565b505b60405162461bcd60e51b815260206004820152603460248201527f455243313135353a207472616e7366657220746f206e6f6e2d455243313135356044820152732932b1b2b4bb32b91034b6b83632b6b2b73a32b960611b6064820152608401610295565b6001600160e01b0319811663bc197c8160e01b14610c945760405162461bcd60e51b815260040161029590611551565b50505050505050565b60408051600180825281830190925260609160009190602080830190803683370190505090508281600081518110610cd757610cd761131b565b602090810291909101015292915050565b6001600160a01b0384163b156108795760405163f23a6e6160e01b81526001600160a01b0385169063f23a6e6190610d2c9089908990889088908890600401611599565b6020604051808303816000875af1925050508015610d67575060408051601f3d908101601f19168201909252610d649181019061148e565b60015b610d7357610bc46114ab565b6001600160e01b0319811663f23a6e6160e01b14610c945760405162461bcd60e51b815260040161029590611551565b80356001600160a01b0381168114610dba57600080fd5b919050565b60008060408385031215610dd257600080fd5b610ddb83610da3565b946020939093013593505050565b6001600160e01b03198116811461068f57600080fd5b600060208284031215610e1157600080fd5b8135610e1c81610de9565b9392505050565b6000815180845260005b81811015610e4957602081850181015186830182015201610e2d565b506000602082860101526020601f19601f83011685010191505092915050565b602081526000610e1c6020830184610e23565b600060208284031215610e8e57600080fd5b5035919050565b634e487b7160e01b600052604160045260246000fd5b601f8201601f1916810167ffffffffffffffff81118282101715610ed157610ed1610e95565b6040525050565b600067ffffffffffffffff821115610ef257610ef2610e95565b5060051b60200190565b600082601f830112610f0d57600080fd5b81356020610f1a82610ed8565b604051610f278282610eab565b83815260059390931b8501820192828101915086841115610f4757600080fd5b8286015b84811015610f625780358352918301918301610f4b565b509695505050505050565b600082601f830112610f7e57600080fd5b813567ffffffffffffffff811115610f9857610f98610e95565b604051610faf601f8301601f191660200182610eab565b818152846020838601011115610fc457600080fd5b816020850160208301376000918101602001919091529392505050565b600080600080600060a08688031215610ff957600080fd5b61100286610da3565b945061101060208701610da3565b9350604086013567ffffffffffffffff8082111561102d57600080fd5b61103989838a01610efc565b9450606088013591508082111561104f57600080fd5b61105b89838a01610efc565b9350608088013591508082111561107157600080fd5b5061107e88828901610f6d565b9150509295509295909350565b6000806040838503121561109e57600080fd5b823567ffffffffffffffff808211156110b657600080fd5b818501915085601f8301126110ca57600080fd5b813560206110d782610ed8565b6040516110e48282610eab565b83815260059390931b850182019282810191508984111561110457600080fd5b948201945b838610156111295761111a86610da3565b82529482019490820190611109565b9650508601359250508082111561113f57600080fd5b5061114c85828601610efc565b9150509250929050565b600081518084526020808501945080840160005b838110156111865781518752958201959082019060010161116a565b509495945050505050565b602081526000610e1c6020830184611156565b600080604083850312156111b757600080fd5b6111c083610da3565b9150602083013580151581146111d557600080fd5b809150509250929050565b600080604083850312156111f357600080fd5b6111fc83610da3565b915061120a60208401610da3565b90509250929050565b600080600080600060a0868803121561122b57600080fd5b61123486610da3565b945061124260208701610da3565b93506040860135925060608601359150608086013567ffffffffffffffff81111561126c57600080fd5b61107e88828901610f6d565b60006020828403121561128a57600080fd5b610e1c82610da3565b600181811c908216806112a757607f821691505b6020821081036112c757634e487b7160e01b600052602260045260246000fd5b50919050565b6020808252602e908201527f455243313135353a2063616c6c6572206973206e6f7420746f6b656e206f776e60408201526d195c881bdc88185c1c1c9bdd995960921b606082015260800190565b634e487b7160e01b600052603260045260246000fd5b634e487b7160e01b600052601160045260246000fd5b60006001820161135957611359611331565b5060010190565b60208082526025908201527f455243313135353a207472616e7366657220746f20746865207a65726f206164604082015264647265737360d81b606082015260800190565b6020808252602a908201527f455243313135353a20696e73756666696369656e742062616c616e636520666f60408201526939103a3930b739b332b960b11b606082015260800190565b808201808211156102c3576102c3611331565b6040815260006114156040830185611156565b82810360208401526114278185611156565b95945050505050565b6001600160a01b0386811682528516602082015260a06040820181905260009061145c90830186611156565b828103606084015261146e8186611156565b905082810360808401526114828185610e23565b98975050505050505050565b6000602082840312156114a057600080fd5b8151610e1c81610de9565b600060033d11156114c45760046000803e5060005160e01c5b90565b600060443d10156114d55790565b6040516003193d81016004833e81513d67ffffffffffffffff816024840111818411171561150557505050505090565b828501915081518181111561151d5750505050505090565b843d87010160208285010111156115375750505050505090565b61154660208286010187610eab565b509095945050505050565b60208082526028908201527f455243313135353a204552433131353552656365697665722072656a656374656040820152676420746f6b656e7360c01b606082015260800190565b6001600160a01b03868116825285166020820152604081018490526060810183905260a0608082018190526000906115d390830184610e23565b97965050505050505056fea2646970667358221220292d5d96a96d390c0d0939cb5ef4c1481fd5a3ce7d05092956bd0b893163b1dd64736f6c63430008110033",
    "sourcePath": "/home/user/Documents/JavaScript_info/AngularAndNode/node-app/nayaContract.sol",
    "compiler": {
        "name": "solc",
        "version": "0.8.17+commit.8df45f5f"
    },
    "functionHashes": {
        "Owner()": "b4a99a4e",
        "balanceOf(address,uint256)": "00fdd58e",
        "balanceOfBatch(address[],uint256[])": "4e1273f4",
        "isApprovedForAll(address,address)": "e985e9c5",
        "name()": "06fdde03",
        "owner()": "8da5cb5b",
        "renounceOwnership()": "715018a6",
        "safeBatchTransferFrom(address,address,uint256[],uint256[],bytes)": "2eb2c2d6",
        "safeTransferFrom(address,address,uint256,uint256,bytes)": "f242432a",
        "setApprovalForAll(address,bool)": "a22cb465",
        "supportsInterface(bytes4)": "01ffc9a7",
        "transferOwnership(address)": "f2fde38b",
        "uri(uint256)": "0e89341c"
    },
    "gasEstimates": {
        "creation": {
            "codeDepositCost": "1130400",
            "executionCost": "infinite",
            "totalCost": "infinite"
        },
        "external": {
            "Owner()": "2359",
            "balanceOf(address,uint256)": "2680",
            "balanceOfBatch(address[],uint256[])": "infinite",
            "isApprovedForAll(address,address)": "infinite",
            "name()": "infinite",
            "owner()": "2365",
            "renounceOwnership()": "infinite",
            "safeBatchTransferFrom(address,address,uint256[],uint256[],bytes)": "infinite",
            "safeTransferFrom(address,address,uint256,uint256,bytes)": "infinite",
            "setApprovalForAll(address,bool)": "26750",
            "supportsInterface(bytes4)": "555",
            "transferOwnership(address)": "28421",
            "uri(uint256)": "infinite"
        }
    }
}